:100000000C942A000C943C000C943C000C943C0092
:100010000C943C000C943C000C943C000C943C0070
:100020000C943C000C943C000C943C000C943C0060
:100030000C943C000C943C000C943C000C943C0050
:100040000C943C000C943C000C943C000C943C0040
:100050000C943C0011241FBECFE5D4E0DEBFCDBF21
:1000600010E0A0E6B0E001C01D92A636B107E1F7AE
:100070000E94B9040C94E0040C940000DF93CF9329
:10008000CDB7DEB7A7E2B0E0E7E2F0E080818064C0
:100090008C93A7E2B0E0E7E2F0E080818F778C9369
:1000A000A7E2B0E0E7E2F0E0808180628C93A6E214
:1000B000B0E0E6E2F0E0808181608C93A6E2B0E0FF
:1000C000E6E2F0E0808182608C93A6E2B0E0E6E2B6
:1000D000F0E0808184608C93A6E2B0E0E6E2F0E09C
:1000E000808180688C93CF91DF910895DF93CF93C7
:1000F000CDB7DEB728970FB6F894DEBF0FBECDBFE1
:100100008E8378876F831A821B821C821D8281E016
:10011000898380916400882309F05AC081E080932C
:100120006400A7E2B0E0E7E2F0E08081807E8C939B
:10013000A7E2B0E0E7E2F0E090818E81892B8C931A
:10014000A6E2B0E0E6E2F0E0808180648C930BC030
:100150008A819B81AC81BD810196A11DB11D8A83DD
:100160009B83AC83BD83E6E2F0E0808182958F7053
:10017000882F90E081709070009761F48A819B8154
:10018000AC81BD81803523EC920720E0A20720E0FE
:10019000B207F1F68A819B81AC81BD81803523EC69
:1001A000920720E0A20720E0B20711F4198212C0E2
:1001B000A6E2B0E0E6E2F0E0808180618C93E5E2C7
:1001C000F0E08081EF81F88580831092640002C0A6
:1001D00082E08983898128960FB6F894DEBF0FBE2E
:1001E000CDBFCF91DF910895DF93CF9300D000D0A2
:1001F00000D0CDB7DEB78A837C836B835E834D836B
:1002000081E08983809164008823B9F58B819C818A
:10021000009721F08D819E81009711F419822FC0E3
:1002200081E0809364008B819C8190936100809336
:1002300060008D819E819093630080936200A7E2AD
:10024000B0E0E7E2F0E08081807E8C93A7E2B0E04E
:10025000E7E2F0E090818A81892B8C93A6E2B0E0FE
:10026000E6E2F0E0808180648C93A6E2B0E0E6E212
:10027000F0E0808188608C9302C082E0898389816C
:1002800026960FB6F894DEBF0FBECDBFCF91DF919B
:1002900008951F920F920FB60F9211242F933F9340
:1002A0004F935F936F937F938F939F93AF93BF937E
:1002B000EF93FF93DF93CF93CDB7DEB7A0916000AC
:1002C000B0916100E5E2F0E080818C9310926400CF
:1002D000E0916200F09163000995A6E2B0E0E6E2E9
:1002E000F0E08081877F8C93CF91DF91FF91EF9138
:1002F000BF91AF919F918F917F916F915F914F913E
:100300003F912F910F900FBE0F901F901895DF9384
:10031000CF93CDB7DEB727970FB6F894DEBF0FBEE9
:10032000CDBF89836A834B838981843008F0EEC016
:100330008A81883008F0EAC08B81813009F06FC073
:100340008981282F30E03F832E838E819F818130E9
:10035000910549F12E813F81223031052CF48E81A7
:100360009F81009761F0D2C02E813F8122303105FC
:1003700071F18E819F8183309105E9F1C7C0ABE3B4
:10038000B0E0EBE3F0E08081482F8A81282F30E055
:1003900081E090E0022E02C0880F991F0A94E2F7D4
:1003A000842B8C93B3C0A8E3B0E0E8E3F0E0808155
:1003B000482F8A81282F30E081E090E0022E02C091
:1003C000880F991F0A94E2F7842B8C939FC0A5E3B2
:1003D000B0E0E5E3F0E08081482F8A81282F30E00B
:1003E00081E090E0022E02C0880F991F0A94E2F784
:1003F000842B8C938BC0A2E3B0E0E2E3F0E0808139
:10040000482F8A81282F30E081E090E0022E02C040
:10041000880F991F0A94E2F7842B8C9377C08B8105
:10042000882309F073C08981282F30E03D832C8315
:100430008C819D818130910559F12C813D81223043
:1004400031052CF48C819D81009769F05FC02C816F
:100450003D812230310589F18C819D818330910568
:1004600009F440C053C0ABE3B0E0EBE3F0E08081BF
:10047000482F8A81282F30E081E090E0022E02C0D0
:10048000880F991F0A94E2F7809584238C933EC0CD
:10049000A8E3B0E0E8E3F0E08081482F8A81282FCC
:1004A00030E081E090E0022E02C0880F991F0A948C
:1004B000E2F7809584238C9329C0A5E3B0E0E5E3BF
:1004C000F0E08081482F8A81282F30E081E090E0A1
:1004D000022E02C0880F991F0A94E2F780958423A8
:1004E0008C9314C0A2E3B0E0E2E3F0E08081482FF7
:1004F0008A81282F30E081E090E0022E02C0880F30
:10050000991F0A94E2F7809584238C9327960FB65F
:10051000F894DEBF0FBECDBFCF91DF910895DF937A
:10052000CF9300D000D00F92CDB7DEB78A836B8314
:100530008A81843008F06CC08B81883008F068C0F4
:100540008A81282F30E03D832C834C815D814130AE
:10055000510541F18C819D818230910534F42C81CB
:100560003D812115310561F055C04C815D814230DE
:10057000510551F18C819D8183309105B9F14AC0BB
:10058000E9E3F0E08081282F30E08B81882F90E034
:10059000A90102C0559547958A95E2F7CA01817075
:1005A000898338C0E6E3F0E08081282F30E08B813A
:1005B000882F90E0A90102C0559547958A95E2F7EA
:1005C000CA018170898326C0E3E3F0E08081282F8F
:1005D00030E08B81882F90E0A90102C055954795A6
:1005E0008A95E2F7CA018170898314C0E0E3F0E0E4
:1005F0008081282F30E08B81882F90E0A90102C0F4
:10060000559547958A95E2F7CA018170898302C0A2
:100610008FEF898389810F900F900F900F900F902B
:10062000CF91DF910895DF93CF93CDB7DEB72797B2
:100630000FB6F894DEBF0FBECDBF89836A834B83AC
:100640008981843008F0EEC08A81883008F0EAC0E1
:100650008B818F3F09F06FC08981282F30E03F8365
:100660002E838E819F818130910549F12E813F81BA
:10067000223031052CF48E819F81009761F0D2C029
:100680002E813F812230310571F18E819F8183302F
:100690009105E9F1C7C0AAE3B0E0EAE3F0E08081A8
:1006A000482F8A81282F30E081E090E0022E02C09E
:1006B000880F991F0A94E2F7842B8C93B3C0A7E3A9
:1006C000B0E0E7E3F0E08081482F8A81282F30E016
:1006D00081E090E0022E02C0880F991F0A94E2F791
:1006E000842B8C939FC0A4E3B0E0E4E3F0E080812E
:1006F000482F8A81282F30E081E090E0022E02C04E
:10070000880F991F0A94E2F7842B8C938BC0A1E386
:10071000B0E0E1E3F0E08081482F8A81282F30E0CB
:1007200081E090E0022E02C0880F991F0A94E2F740
:10073000842B8C9377C08B81882309F073C08981C7
:10074000282F30E03D832C838C819D818130910561
:1007500059F12C813D81223031052CF48C819D8111
:10076000009769F05FC02C813D812230310589F10D
:100770008C819D818330910509F440C053C0AAE368
:10078000B0E0EAE3F0E08081482F8A81282F30E052
:1007900081E090E0022E02C0880F991F0A94E2F7D0
:1007A000809584238C933EC0A7E3B0E0E7E3F0E0BC
:1007B0008081482F8A81282F30E081E090E0022E4E
:1007C00002C0880F991F0A94E2F7809584238C93C6
:1007D00029C0A4E3B0E0E4E3F0E08081482F8A81FF
:1007E000282F30E081E090E0022E02C0880F991F90
:1007F0000A94E2F7809584238C9314C0A1E3B0E0BF
:10080000E1E3F0E08081482F8A81282F30E081E009
:1008100090E0022E02C0880F991F0A94E2F780959B
:1008200084238C9327960FB6F894DEBF0FBECDBFFE
:10083000CF91DF910895DF93CF9300D000D0CDB753
:10084000DEB789836A838981282F30E03C832B833C
:100850008B819C8181309105D1F02B813C812230AC
:1008600031052CF48B819C81009761F01EC02B8197
:100870003C812230310581F08B819C818330910550
:1008800081F013C0EAE3F0E08A8180830EC0E7E3E1
:10089000F0E08A81808309C0E4E3F0E08A8180830C
:1008A00004C0E1E3F0E08A8180830F900F900F9005
:1008B0000F90CF91DF910895DF93CF9300D000D0B8
:1008C000CDB7DEB789836A838981282F30E03C83E6
:1008D0002B838B819C8181309105D1F02B813C81D0
:1008E000223031052CF48B819C81009761F01EC071
:1008F0002B813C812230310581F08B819C818330BA
:10090000910581F013C0EBE3F0E08A8180830EC093
:10091000E8E3F0E08A81808309C0E5E3F0E08A81C2
:10092000808304C0E2E3F0E08A8180830F900F901F
:100930000F900F90CF91DF910895DF93CF93CDB7B4
:10094000DEB7AFE5B0E0EFE5F0E0808180688C9342
:10095000CF91DF910895DF93CF93CDB7DEB7AFE5A9
:10096000B0E0EFE5F0E080818F778C93CF91DF915D
:100970000895DF93CF93CDB7DEB780E060E00E94AB
:100980001B0482E06FEF0E941B040E943E000E9445
:100990009D0425E630E043ED54E080E090E0B901AD
:1009A0000E94F400F6CFDF93CF93CDB7DEB79091DE
:1009B000650082E0692F0E945C04CF91DF91089569
:0409C000F894FFCFD9
:00000001FF
